{"contracts/old_operator.sol":{"OperatorContractOld":{"abi":[{"inputs":[{"internalType":"uint256","name":"_memberSize","type":"uint256"}],"stateMutability":"payable","type":"constructor"},{"inputs":[],"name":"auction","outputs":[],"stateMutability":"nonpayable","type":"function"},{"inputs":[],"name":"contractOwner","outputs":[{"internalType":"address","name":"","type":"address"}],"stateMutability":"view","type":"function"},{"inputs":[],"name":"getBalance","outputs":[{"internalType":"uint256","name":"","type":"uint256"}],"stateMutability":"view","type":"function"},{"inputs":[{"internalType":"address","name":"","type":"address"}],"name":"paidMembers","outputs":[{"internalType":"bool","name":"","type":"bool"}],"stateMutability":"view","type":"function"},{"inputs":[{"internalType":"uint256","name":"","type":"uint256"}],"name":"paidMembersList","outputs":[{"internalType":"address payable","name":"","type":"address"}],"stateMutability":"view","type":"function"},{"inputs":[],"name":"sendMoneyToOperator","outputs":[],"stateMutability":"payable","type":"function"},{"inputs":[{"internalType":"address payable","name":"member","type":"address"},{"internalType":"uint256","name":"amount","type":"uint256"}],"name":"withdrawFraction","outputs":[],"stateMutability":"nonpayable","type":"function"}],"evm":{"bytecode":{"linkReferences":{},"object":"6080604052604051610c7b380380610c7b833981810160405281019061002591906100bb565b336000806101000a81548173ffffffffffffffffffffffffffffffffffffffff021916908373ffffffffffffffffffffffffffffffffffffffff160217905550806001819055508060028190555034600381905550506100e8565b600080fd5b6000819050919050565b61009881610085565b81146100a357600080fd5b50565b6000815190506100b58161008f565b92915050565b6000602082840312156100d1576100d0610080565b5b60006100df848285016100a6565b91505092915050565b610b84806100f76000396000f3fe6080604052600436106100705760003560e01c80637d9f6db51161004e5780637d9f6db5146100d357806392ef91f7146100ea578063ce606ee014610127578063ffdc62e81461015257610070565b80630a6e1a151461007557806312065fe01461007f5780631b1f94b6146100aa575b600080fd5b61007d61018f565b005b34801561008b57600080fd5b506100946102d8565b6040516100a19190610605565b60405180910390f35b3480156100b657600080fd5b506100d160048036038101906100cc91906106af565b6102e0565b005b3480156100df57600080fd5b506100e861043e565b005b3480156100f657600080fd5b50610111600480360381019061010c919061072d565b610440565b60405161011e9190610775565b60405180910390f35b34801561013357600080fd5b5061013c610460565b604051610149919061079f565b60405180910390f35b34801561015e57600080fd5b50610179600480360381019061017491906107ba565b610484565b60405161018691906107f6565b60405180910390f35b600154600480549050106101d8576040517f08c379a00000000000000000000000000000000000000000000000000000000081526004016101cf9061086e565b60405180910390fd5b6000341161021b576040517f08c379a0000000000000000000000000000000000000000000000000000000008152600401610212906108da565b60405180910390fd5b6001600560003373ffffffffffffffffffffffffffffffffffffffff1673ffffffffffffffffffffffffffffffffffffffff16815260200190815260200160002060006101000a81548160ff0219169083151502179055506004339080600181540180825580915050600190039060005260206000200160009091909190916101000a81548173ffffffffffffffffffffffffffffffffffffffff021916908373ffffffffffffffffffffffffffffffffffffffff160217905550565b600047905090565b600081670de0b6b3a76400006102f69190610929565b905060011515600560008573ffffffffffffffffffffffffffffffffffffffff1673ffffffffffffffffffffffffffffffffffffffff16815260200190815260200160002060009054906101000a900460ff1615151461038b576040517f08c379a0000000000000000000000000000000000000000000000000000000008152600401610382906109b7565b60405180910390fd5b478111156103ce576040517f08c379a00000000000000000000000000000000000000000000000000000000081526004016103c590610a23565b60405180910390fd5b8273ffffffffffffffffffffffffffffffffffffffff166108fc829081150290604051600060405180830381858888f19350505050158015610414573d6000803e3d6000fd5b506000820361042d576104288360006104c3565b610439565b6104388360016104c3565b5b505050565b565b60056020528060005260406000206000915054906101000a900460ff1681565b60008054906101000a900473ffffffffffffffffffffffffffffffffffffffff1681565b6004818154811061049457600080fd5b906000526020600020016000915054906101000a900473ffffffffffffffffffffffffffffffffffffffff1681565b600081156104d057600190505b60008160ff166004805490506104e69190610a43565b476104f19190610aa6565b905060005b6004805490508110156105e55760006004828154811061051957610518610ad7565b5b9060005260206000200160009054906101000a900473ffffffffffffffffffffffffffffffffffffffff1690508573ffffffffffffffffffffffffffffffffffffffff168173ffffffffffffffffffffffffffffffffffffffff1614801561057e5750845b1561058957506105d2565b8073ffffffffffffffffffffffffffffffffffffffff166108fc849081150290604051600060405180830381858888f193505050501580156105cf573d6000803e3d6000fd5b50505b80806105dd90610b06565b9150506104f6565b5050505050565b6000819050919050565b6105ff816105ec565b82525050565b600060208201905061061a60008301846105f6565b92915050565b600080fd5b600073ffffffffffffffffffffffffffffffffffffffff82169050919050565b600061065082610625565b9050919050565b61066081610645565b811461066b57600080fd5b50565b60008135905061067d81610657565b92915050565b61068c816105ec565b811461069757600080fd5b50565b6000813590506106a981610683565b92915050565b600080604083850312156106c6576106c5610620565b5b60006106d48582860161066e565b92505060206106e58582860161069a565b9150509250929050565b60006106fa82610625565b9050919050565b61070a816106ef565b811461071557600080fd5b50565b60008135905061072781610701565b92915050565b60006020828403121561074357610742610620565b5b600061075184828501610718565b91505092915050565b60008115159050919050565b61076f8161075a565b82525050565b600060208201905061078a6000830184610766565b92915050565b610799816106ef565b82525050565b60006020820190506107b46000830184610790565b92915050565b6000602082840312156107d0576107cf610620565b5b60006107de8482850161069a565b91505092915050565b6107f081610645565b82525050565b600060208201905061080b60008301846107e7565b92915050565b600082825260208201905092915050565b7f4d41585f4d454d424552535f5245414348454400000000000000000000000000600082015250565b6000610858601383610811565b915061086382610822565b602082019050919050565b600060208201905081810360008301526108878161084b565b9050919050565b7f5a45524f5f4445504f5349540000000000000000000000000000000000000000600082015250565b60006108c4600c83610811565b91506108cf8261088e565b602082019050919050565b600060208201905081810360008301526108f3816108b7565b9050919050565b7f4e487b7100000000000000000000000000000000000000000000000000000000600052601160045260246000fd5b6000610934826105ec565b915061093f836105ec565b925082820261094d816105ec565b91508282048414831517610964576109636108fa565b5b5092915050565b7f4e4f4e5f4d454d4245525f574954484452415700000000000000000000000000600082015250565b60006109a1601383610811565b91506109ac8261096b565b602082019050919050565b600060208201905081810360008301526109d081610994565b9050919050565b7f4d41585f414d545f524541434845440000000000000000000000000000000000600082015250565b6000610a0d600f83610811565b9150610a18826109d7565b602082019050919050565b60006020820190508181036000830152610a3c81610a00565b9050919050565b6000610a4e826105ec565b9150610a59836105ec565b9250828203905081811115610a7157610a706108fa565b5b92915050565b7f4e487b7100000000000000000000000000000000000000000000000000000000600052601260045260246000fd5b6000610ab1826105ec565b9150610abc836105ec565b925082610acc57610acb610a77565b5b828204905092915050565b7f4e487b7100000000000000000000000000000000000000000000000000000000600052603260045260246000fd5b6000610b11826105ec565b91507fffffffffffffffffffffffffffffffffffffffffffffffffffffffffffffffff8203610b4357610b426108fa565b5b60018201905091905056fea26469706673582212201a01d9fa396321e2a2a0b5e2d91ab598f2c377b9853b095743ca8a8eb877138964736f6c63430008130033","opcodes":"PUSH1 0x80 PUSH1 0x40 MSTORE PUSH1 0x40 MLOAD PUSH2 0xC7B CODESIZE SUB DUP1 PUSH2 0xC7B DUP4 CODECOPY DUP2 DUP2 ADD PUSH1 0x40 MSTORE DUP2 ADD SWAP1 PUSH2 0x25 SWAP2 SWAP1 PUSH2 0xBB JUMP JUMPDEST CALLER PUSH1 0x0 DUP1 PUSH2 0x100 EXP DUP2 SLOAD DUP2 PUSH20 0xFFFFFFFFFFFFFFFFFFFFFFFFFFFFFFFFFFFFFFFF MUL NOT AND SWAP1 DUP4 PUSH20 0xFFFFFFFFFFFFFFFFFFFFFFFFFFFFFFFFFFFFFFFF AND MUL OR SWAP1 SSTORE POP DUP1 PUSH1 0x1 DUP2 SWAP1 SSTORE POP DUP1 PUSH1 0x2 DUP2 SWAP1 SSTORE POP CALLVALUE PUSH1 0x3 DUP2 SWAP1 SSTORE POP POP PUSH2 0xE8 JUMP JUMPDEST PUSH1 0x0 DUP1 REVERT JUMPDEST PUSH1 0x0 DUP2 SWAP1 POP SWAP2 SWAP1 POP JUMP JUMPDEST PUSH2 0x98 DUP2 PUSH2 0x85 JUMP JUMPDEST DUP2 EQ PUSH2 0xA3 JUMPI PUSH1 0x0 DUP1 REVERT JUMPDEST POP JUMP JUMPDEST PUSH1 0x0 DUP2 MLOAD SWAP1 POP PUSH2 0xB5 DUP2 PUSH2 0x8F JUMP JUMPDEST SWAP3 SWAP2 POP POP JUMP JUMPDEST PUSH1 0x0 PUSH1 0x20 DUP3 DUP5 SUB SLT ISZERO PUSH2 0xD1 JUMPI PUSH2 0xD0 PUSH2 0x80 JUMP JUMPDEST JUMPDEST PUSH1 0x0 PUSH2 0xDF DUP5 DUP3 DUP6 ADD PUSH2 0xA6 JUMP JUMPDEST SWAP2 POP POP SWAP3 SWAP2 POP POP JUMP JUMPDEST PUSH2 0xB84 DUP1 PUSH2 0xF7 PUSH1 0x0 CODECOPY PUSH1 0x0 RETURN INVALID PUSH1 0x80 PUSH1 0x40 MSTORE PUSH1 0x4 CALLDATASIZE LT PUSH2 0x70 JUMPI PUSH1 0x0 CALLDATALOAD PUSH1 0xE0 SHR DUP1 PUSH4 0x7D9F6DB5 GT PUSH2 0x4E JUMPI DUP1 PUSH4 0x7D9F6DB5 EQ PUSH2 0xD3 JUMPI DUP1 PUSH4 0x92EF91F7 EQ PUSH2 0xEA JUMPI DUP1 PUSH4 0xCE606EE0 EQ PUSH2 0x127 JUMPI DUP1 PUSH4 0xFFDC62E8 EQ PUSH2 0x152 JUMPI PUSH2 0x70 JUMP JUMPDEST DUP1 PUSH4 0xA6E1A15 EQ PUSH2 0x75 JUMPI DUP1 PUSH4 0x12065FE0 EQ PUSH2 0x7F JUMPI DUP1 PUSH4 0x1B1F94B6 EQ PUSH2 0xAA JUMPI JUMPDEST PUSH1 0x0 DUP1 REVERT JUMPDEST PUSH2 0x7D PUSH2 0x18F JUMP JUMPDEST STOP JUMPDEST CALLVALUE DUP1 ISZERO PUSH2 0x8B JUMPI PUSH1 0x0 DUP1 REVERT JUMPDEST POP PUSH2 0x94 PUSH2 0x2D8 JUMP JUMPDEST PUSH1 0x40 MLOAD PUSH2 0xA1 SWAP2 SWAP1 PUSH2 0x605 JUMP JUMPDEST PUSH1 0x40 MLOAD DUP1 SWAP2 SUB SWAP1 RETURN JUMPDEST CALLVALUE DUP1 ISZERO PUSH2 0xB6 JUMPI PUSH1 0x0 DUP1 REVERT JUMPDEST POP PUSH2 0xD1 PUSH1 0x4 DUP1 CALLDATASIZE SUB DUP2 ADD SWAP1 PUSH2 0xCC SWAP2 SWAP1 PUSH2 0x6AF JUMP JUMPDEST PUSH2 0x2E0 JUMP JUMPDEST STOP JUMPDEST CALLVALUE DUP1 ISZERO PUSH2 0xDF JUMPI PUSH1 0x0 DUP1 REVERT JUMPDEST POP PUSH2 0xE8 PUSH2 0x43E JUMP JUMPDEST STOP JUMPDEST CALLVALUE DUP1 ISZERO PUSH2 0xF6 JUMPI PUSH1 0x0 DUP1 REVERT JUMPDEST POP PUSH2 0x111 PUSH1 0x4 DUP1 CALLDATASIZE SUB DUP2 ADD SWAP1 PUSH2 0x10C SWAP2 SWAP1 PUSH2 0x72D JUMP JUMPDEST PUSH2 0x440 JUMP JUMPDEST PUSH1 0x40 MLOAD PUSH2 0x11E SWAP2 SWAP1 PUSH2 0x775 JUMP JUMPDEST PUSH1 0x40 MLOAD DUP1 SWAP2 SUB SWAP1 RETURN JUMPDEST CALLVALUE DUP1 ISZERO PUSH2 0x133 JUMPI PUSH1 0x0 DUP1 REVERT JUMPDEST POP PUSH2 0x13C PUSH2 0x460 JUMP JUMPDEST PUSH1 0x40 MLOAD PUSH2 0x149 SWAP2 SWAP1 PUSH2 0x79F JUMP JUMPDEST PUSH1 0x40 MLOAD DUP1 SWAP2 SUB SWAP1 RETURN JUMPDEST CALLVALUE DUP1 ISZERO PUSH2 0x15E JUMPI PUSH1 0x0 DUP1 REVERT JUMPDEST POP PUSH2 0x179 PUSH1 0x4 DUP1 CALLDATASIZE SUB DUP2 ADD SWAP1 PUSH2 0x174 SWAP2 SWAP1 PUSH2 0x7BA JUMP JUMPDEST PUSH2 0x484 JUMP JUMPDEST PUSH1 0x40 MLOAD PUSH2 0x186 SWAP2 SWAP1 PUSH2 0x7F6 JUMP JUMPDEST PUSH1 0x40 MLOAD DUP1 SWAP2 SUB SWAP1 RETURN JUMPDEST PUSH1 0x1 SLOAD PUSH1 0x4 DUP1 SLOAD SWAP1 POP LT PUSH2 0x1D8 JUMPI PUSH1 0x40 MLOAD PUSH32 0x8C379A000000000000000000000000000000000000000000000000000000000 DUP2 MSTORE PUSH1 0x4 ADD PUSH2 0x1CF SWAP1 PUSH2 0x86E JUMP JUMPDEST PUSH1 0x40 MLOAD DUP1 SWAP2 SUB SWAP1 REVERT JUMPDEST PUSH1 0x0 CALLVALUE GT PUSH2 0x21B JUMPI PUSH1 0x40 MLOAD PUSH32 0x8C379A000000000000000000000000000000000000000000000000000000000 DUP2 MSTORE PUSH1 0x4 ADD PUSH2 0x212 SWAP1 PUSH2 0x8DA JUMP JUMPDEST PUSH1 0x40 MLOAD DUP1 SWAP2 SUB SWAP1 REVERT JUMPDEST PUSH1 0x1 PUSH1 0x5 PUSH1 0x0 CALLER PUSH20 0xFFFFFFFFFFFFFFFFFFFFFFFFFFFFFFFFFFFFFFFF AND PUSH20 0xFFFFFFFFFFFFFFFFFFFFFFFFFFFFFFFFFFFFFFFF AND DUP2 MSTORE PUSH1 0x20 ADD SWAP1 DUP2 MSTORE PUSH1 0x20 ADD PUSH1 0x0 KECCAK256 PUSH1 0x0 PUSH2 0x100 EXP DUP2 SLOAD DUP2 PUSH1 0xFF MUL NOT AND SWAP1 DUP4 ISZERO ISZERO MUL OR SWAP1 SSTORE POP PUSH1 0x4 CALLER SWAP1 DUP1 PUSH1 0x1 DUP2 SLOAD ADD DUP1 DUP3 SSTORE DUP1 SWAP2 POP POP PUSH1 0x1 SWAP1 SUB SWAP1 PUSH1 0x0 MSTORE PUSH1 0x20 PUSH1 0x0 KECCAK256 ADD PUSH1 0x0 SWAP1 SWAP2 SWAP1 SWAP2 SWAP1 SWAP2 PUSH2 0x100 EXP DUP2 SLOAD DUP2 PUSH20 0xFFFFFFFFFFFFFFFFFFFFFFFFFFFFFFFFFFFFFFFF MUL NOT AND SWAP1 DUP4 PUSH20 0xFFFFFFFFFFFFFFFFFFFFFFFFFFFFFFFFFFFFFFFF AND MUL OR SWAP1 SSTORE POP JUMP JUMPDEST PUSH1 0x0 SELFBALANCE SWAP1 POP SWAP1 JUMP JUMPDEST PUSH1 0x0 DUP2 PUSH8 0xDE0B6B3A7640000 PUSH2 0x2F6 SWAP2 SWAP1 PUSH2 0x929 JUMP JUMPDEST SWAP1 POP PUSH1 0x1 ISZERO ISZERO PUSH1 0x5 PUSH1 0x0 DUP6 PUSH20 0xFFFFFFFFFFFFFFFFFFFFFFFFFFFFFFFFFFFFFFFF AND PUSH20 0xFFFFFFFFFFFFFFFFFFFFFFFFFFFFFFFFFFFFFFFF AND DUP2 MSTORE PUSH1 0x20 ADD SWAP1 DUP2 MSTORE PUSH1 0x20 ADD PUSH1 0x0 KECCAK256 PUSH1 0x0 SWAP1 SLOAD SWAP1 PUSH2 0x100 EXP SWAP1 DIV PUSH1 0xFF AND ISZERO ISZERO EQ PUSH2 0x38B JUMPI PUSH1 0x40 MLOAD PUSH32 0x8C379A000000000000000000000000000000000000000000000000000000000 DUP2 MSTORE PUSH1 0x4 ADD PUSH2 0x382 SWAP1 PUSH2 0x9B7 JUMP JUMPDEST PUSH1 0x40 MLOAD DUP1 SWAP2 SUB SWAP1 REVERT JUMPDEST SELFBALANCE DUP2 GT ISZERO PUSH2 0x3CE JUMPI PUSH1 0x40 MLOAD PUSH32 0x8C379A000000000000000000000000000000000000000000000000000000000 DUP2 MSTORE PUSH1 0x4 ADD PUSH2 0x3C5 SWAP1 PUSH2 0xA23 JUMP JUMPDEST PUSH1 0x40 MLOAD DUP1 SWAP2 SUB SWAP1 REVERT JUMPDEST DUP3 PUSH20 0xFFFFFFFFFFFFFFFFFFFFFFFFFFFFFFFFFFFFFFFF AND PUSH2 0x8FC DUP3 SWAP1 DUP2 ISZERO MUL SWAP1 PUSH1 0x40 MLOAD PUSH1 0x0 PUSH1 0x40 MLOAD DUP1 DUP4 SUB DUP2 DUP6 DUP9 DUP9 CALL SWAP4 POP POP POP POP ISZERO DUP1 ISZERO PUSH2 0x414 JUMPI RETURNDATASIZE PUSH1 0x0 DUP1 RETURNDATACOPY RETURNDATASIZE PUSH1 0x0 REVERT JUMPDEST POP PUSH1 0x0 DUP3 SUB PUSH2 0x42D JUMPI PUSH2 0x428 DUP4 PUSH1 0x0 PUSH2 0x4C3 JUMP JUMPDEST PUSH2 0x439 JUMP JUMPDEST PUSH2 0x438 DUP4 PUSH1 0x1 PUSH2 0x4C3 JUMP JUMPDEST JUMPDEST POP POP POP JUMP JUMPDEST JUMP JUMPDEST PUSH1 0x5 PUSH1 0x20 MSTORE DUP1 PUSH1 0x0 MSTORE PUSH1 0x40 PUSH1 0x0 KECCAK256 PUSH1 0x0 SWAP2 POP SLOAD SWAP1 PUSH2 0x100 EXP SWAP1 DIV PUSH1 0xFF AND DUP2 JUMP JUMPDEST PUSH1 0x0 DUP1 SLOAD SWAP1 PUSH2 0x100 EXP SWAP1 DIV PUSH20 0xFFFFFFFFFFFFFFFFFFFFFFFFFFFFFFFFFFFFFFFF AND DUP2 JUMP JUMPDEST PUSH1 0x4 DUP2 DUP2 SLOAD DUP2 LT PUSH2 0x494 JUMPI PUSH1 0x0 DUP1 REVERT JUMPDEST SWAP1 PUSH1 0x0 MSTORE PUSH1 0x20 PUSH1 0x0 KECCAK256 ADD PUSH1 0x0 SWAP2 POP SLOAD SWAP1 PUSH2 0x100 EXP SWAP1 DIV PUSH20 0xFFFFFFFFFFFFFFFFFFFFFFFFFFFFFFFFFFFFFFFF AND DUP2 JUMP JUMPDEST PUSH1 0x0 DUP2 ISZERO PUSH2 0x4D0 JUMPI PUSH1 0x1 SWAP1 POP JUMPDEST PUSH1 0x0 DUP2 PUSH1 0xFF AND PUSH1 0x4 DUP1 SLOAD SWAP1 POP PUSH2 0x4E6 SWAP2 SWAP1 PUSH2 0xA43 JUMP JUMPDEST SELFBALANCE PUSH2 0x4F1 SWAP2 SWAP1 PUSH2 0xAA6 JUMP JUMPDEST SWAP1 POP PUSH1 0x0 JUMPDEST PUSH1 0x4 DUP1 SLOAD SWAP1 POP DUP2 LT ISZERO PUSH2 0x5E5 JUMPI PUSH1 0x0 PUSH1 0x4 DUP3 DUP2 SLOAD DUP2 LT PUSH2 0x519 JUMPI PUSH2 0x518 PUSH2 0xAD7 JUMP JUMPDEST JUMPDEST SWAP1 PUSH1 0x0 MSTORE PUSH1 0x20 PUSH1 0x0 KECCAK256 ADD PUSH1 0x0 SWAP1 SLOAD SWAP1 PUSH2 0x100 EXP SWAP1 DIV PUSH20 0xFFFFFFFFFFFFFFFFFFFFFFFFFFFFFFFFFFFFFFFF AND SWAP1 POP DUP6 PUSH20 0xFFFFFFFFFFFFFFFFFFFFFFFFFFFFFFFFFFFFFFFF AND DUP2 PUSH20 0xFFFFFFFFFFFFFFFFFFFFFFFFFFFFFFFFFFFFFFFF AND EQ DUP1 ISZERO PUSH2 0x57E JUMPI POP DUP5 JUMPDEST ISZERO PUSH2 0x589 JUMPI POP PUSH2 0x5D2 JUMP JUMPDEST DUP1 PUSH20 0xFFFFFFFFFFFFFFFFFFFFFFFFFFFFFFFFFFFFFFFF AND PUSH2 0x8FC DUP5 SWAP1 DUP2 ISZERO MUL SWAP1 PUSH1 0x40 MLOAD PUSH1 0x0 PUSH1 0x40 MLOAD DUP1 DUP4 SUB DUP2 DUP6 DUP9 DUP9 CALL SWAP4 POP POP POP POP ISZERO DUP1 ISZERO PUSH2 0x5CF JUMPI RETURNDATASIZE PUSH1 0x0 DUP1 RETURNDATACOPY RETURNDATASIZE PUSH1 0x0 REVERT JUMPDEST POP POP JUMPDEST DUP1 DUP1 PUSH2 0x5DD SWAP1 PUSH2 0xB06 JUMP JUMPDEST SWAP2 POP POP PUSH2 0x4F6 JUMP JUMPDEST POP POP POP POP POP JUMP JUMPDEST PUSH1 0x0 DUP2 SWAP1 POP SWAP2 SWAP1 POP JUMP JUMPDEST PUSH2 0x5FF DUP2 PUSH2 0x5EC JUMP JUMPDEST DUP3 MSTORE POP POP JUMP JUMPDEST PUSH1 0x0 PUSH1 0x20 DUP3 ADD SWAP1 POP PUSH2 0x61A PUSH1 0x0 DUP4 ADD DUP5 PUSH2 0x5F6 JUMP JUMPDEST SWAP3 SWAP2 POP POP JUMP JUMPDEST PUSH1 0x0 DUP1 REVERT JUMPDEST PUSH1 0x0 PUSH20 0xFFFFFFFFFFFFFFFFFFFFFFFFFFFFFFFFFFFFFFFF DUP3 AND SWAP1 POP SWAP2 SWAP1 POP JUMP JUMPDEST PUSH1 0x0 PUSH2 0x650 DUP3 PUSH2 0x625 JUMP JUMPDEST SWAP1 POP SWAP2 SWAP1 POP JUMP JUMPDEST PUSH2 0x660 DUP2 PUSH2 0x645 JUMP JUMPDEST DUP2 EQ PUSH2 0x66B JUMPI PUSH1 0x0 DUP1 REVERT JUMPDEST POP JUMP JUMPDEST PUSH1 0x0 DUP2 CALLDATALOAD SWAP1 POP PUSH2 0x67D DUP2 PUSH2 0x657 JUMP JUMPDEST SWAP3 SWAP2 POP POP JUMP JUMPDEST PUSH2 0x68C DUP2 PUSH2 0x5EC JUMP JUMPDEST DUP2 EQ PUSH2 0x697 JUMPI PUSH1 0x0 DUP1 REVERT JUMPDEST POP JUMP JUMPDEST PUSH1 0x0 DUP2 CALLDATALOAD SWAP1 POP PUSH2 0x6A9 DUP2 PUSH2 0x683 JUMP JUMPDEST SWAP3 SWAP2 POP POP JUMP JUMPDEST PUSH1 0x0 DUP1 PUSH1 0x40 DUP4 DUP6 SUB SLT ISZERO PUSH2 0x6C6 JUMPI PUSH2 0x6C5 PUSH2 0x620 JUMP JUMPDEST JUMPDEST PUSH1 0x0 PUSH2 0x6D4 DUP6 DUP3 DUP7 ADD PUSH2 0x66E JUMP JUMPDEST SWAP3 POP POP PUSH1 0x20 PUSH2 0x6E5 DUP6 DUP3 DUP7 ADD PUSH2 0x69A JUMP JUMPDEST SWAP2 POP POP SWAP3 POP SWAP3 SWAP1 POP JUMP JUMPDEST PUSH1 0x0 PUSH2 0x6FA DUP3 PUSH2 0x625 JUMP JUMPDEST SWAP1 POP SWAP2 SWAP1 POP JUMP JUMPDEST PUSH2 0x70A DUP2 PUSH2 0x6EF JUMP JUMPDEST DUP2 EQ PUSH2 0x715 JUMPI PUSH1 0x0 DUP1 REVERT JUMPDEST POP JUMP JUMPDEST PUSH1 0x0 DUP2 CALLDATALOAD SWAP1 POP PUSH2 0x727 DUP2 PUSH2 0x701 JUMP JUMPDEST SWAP3 SWAP2 POP POP JUMP JUMPDEST PUSH1 0x0 PUSH1 0x20 DUP3 DUP5 SUB SLT ISZERO PUSH2 0x743 JUMPI PUSH2 0x742 PUSH2 0x620 JUMP JUMPDEST JUMPDEST PUSH1 0x0 PUSH2 0x751 DUP5 DUP3 DUP6 ADD PUSH2 0x718 JUMP JUMPDEST SWAP2 POP POP SWAP3 SWAP2 POP POP JUMP JUMPDEST PUSH1 0x0 DUP2 ISZERO ISZERO SWAP1 POP SWAP2 SWAP1 POP JUMP JUMPDEST PUSH2 0x76F DUP2 PUSH2 0x75A JUMP JUMPDEST DUP3 MSTORE POP POP JUMP JUMPDEST PUSH1 0x0 PUSH1 0x20 DUP3 ADD SWAP1 POP PUSH2 0x78A PUSH1 0x0 DUP4 ADD DUP5 PUSH2 0x766 JUMP JUMPDEST SWAP3 SWAP2 POP POP JUMP JUMPDEST PUSH2 0x799 DUP2 PUSH2 0x6EF JUMP JUMPDEST DUP3 MSTORE POP POP JUMP JUMPDEST PUSH1 0x0 PUSH1 0x20 DUP3 ADD SWAP1 POP PUSH2 0x7B4 PUSH1 0x0 DUP4 ADD DUP5 PUSH2 0x790 JUMP JUMPDEST SWAP3 SWAP2 POP POP JUMP JUMPDEST PUSH1 0x0 PUSH1 0x20 DUP3 DUP5 SUB SLT ISZERO PUSH2 0x7D0 JUMPI PUSH2 0x7CF PUSH2 0x620 JUMP JUMPDEST JUMPDEST PUSH1 0x0 PUSH2 0x7DE DUP5 DUP3 DUP6 ADD PUSH2 0x69A JUMP JUMPDEST SWAP2 POP POP SWAP3 SWAP2 POP POP JUMP JUMPDEST PUSH2 0x7F0 DUP2 PUSH2 0x645 JUMP JUMPDEST DUP3 MSTORE POP POP JUMP JUMPDEST PUSH1 0x0 PUSH1 0x20 DUP3 ADD SWAP1 POP PUSH2 0x80B PUSH1 0x0 DUP4 ADD DUP5 PUSH2 0x7E7 JUMP JUMPDEST SWAP3 SWAP2 POP POP JUMP JUMPDEST PUSH1 0x0 DUP3 DUP3 MSTORE PUSH1 0x20 DUP3 ADD SWAP1 POP SWAP3 SWAP2 POP POP JUMP JUMPDEST PUSH32 0x4D41585F4D454D424552535F5245414348454400000000000000000000000000 PUSH1 0x0 DUP3 ADD MSTORE POP JUMP JUMPDEST PUSH1 0x0 PUSH2 0x858 PUSH1 0x13 DUP4 PUSH2 0x811 JUMP JUMPDEST SWAP2 POP PUSH2 0x863 DUP3 PUSH2 0x822 JUMP JUMPDEST PUSH1 0x20 DUP3 ADD SWAP1 POP SWAP2 SWAP1 POP JUMP JUMPDEST PUSH1 0x0 PUSH1 0x20 DUP3 ADD SWAP1 POP DUP2 DUP2 SUB PUSH1 0x0 DUP4 ADD MSTORE PUSH2 0x887 DUP2 PUSH2 0x84B JUMP JUMPDEST SWAP1 POP SWAP2 SWAP1 POP JUMP JUMPDEST PUSH32 0x5A45524F5F4445504F5349540000000000000000000000000000000000000000 PUSH1 0x0 DUP3 ADD MSTORE POP JUMP JUMPDEST PUSH1 0x0 PUSH2 0x8C4 PUSH1 0xC DUP4 PUSH2 0x811 JUMP JUMPDEST SWAP2 POP PUSH2 0x8CF DUP3 PUSH2 0x88E JUMP JUMPDEST PUSH1 0x20 DUP3 ADD SWAP1 POP SWAP2 SWAP1 POP JUMP JUMPDEST PUSH1 0x0 PUSH1 0x20 DUP3 ADD SWAP1 POP DUP2 DUP2 SUB PUSH1 0x0 DUP4 ADD MSTORE PUSH2 0x8F3 DUP2 PUSH2 0x8B7 JUMP JUMPDEST SWAP1 POP SWAP2 SWAP1 POP JUMP JUMPDEST PUSH32 0x4E487B7100000000000000000000000000000000000000000000000000000000 PUSH1 0x0 MSTORE PUSH1 0x11 PUSH1 0x4 MSTORE PUSH1 0x24 PUSH1 0x0 REVERT JUMPDEST PUSH1 0x0 PUSH2 0x934 DUP3 PUSH2 0x5EC JUMP JUMPDEST SWAP2 POP PUSH2 0x93F DUP4 PUSH2 0x5EC JUMP JUMPDEST SWAP3 POP DUP3 DUP3 MUL PUSH2 0x94D DUP2 PUSH2 0x5EC JUMP JUMPDEST SWAP2 POP DUP3 DUP3 DIV DUP5 EQ DUP4 ISZERO OR PUSH2 0x964 JUMPI PUSH2 0x963 PUSH2 0x8FA JUMP JUMPDEST JUMPDEST POP SWAP3 SWAP2 POP POP JUMP JUMPDEST PUSH32 0x4E4F4E5F4D454D4245525F574954484452415700000000000000000000000000 PUSH1 0x0 DUP3 ADD MSTORE POP JUMP JUMPDEST PUSH1 0x0 PUSH2 0x9A1 PUSH1 0x13 DUP4 PUSH2 0x811 JUMP JUMPDEST SWAP2 POP PUSH2 0x9AC DUP3 PUSH2 0x96B JUMP JUMPDEST PUSH1 0x20 DUP3 ADD SWAP1 POP SWAP2 SWAP1 POP JUMP JUMPDEST PUSH1 0x0 PUSH1 0x20 DUP3 ADD SWAP1 POP DUP2 DUP2 SUB PUSH1 0x0 DUP4 ADD MSTORE PUSH2 0x9D0 DUP2 PUSH2 0x994 JUMP JUMPDEST SWAP1 POP SWAP2 SWAP1 POP JUMP JUMPDEST PUSH32 0x4D41585F414D545F524541434845440000000000000000000000000000000000 PUSH1 0x0 DUP3 ADD MSTORE POP JUMP JUMPDEST PUSH1 0x0 PUSH2 0xA0D PUSH1 0xF DUP4 PUSH2 0x811 JUMP JUMPDEST SWAP2 POP PUSH2 0xA18 DUP3 PUSH2 0x9D7 JUMP JUMPDEST PUSH1 0x20 DUP3 ADD SWAP1 POP SWAP2 SWAP1 POP JUMP JUMPDEST PUSH1 0x0 PUSH1 0x20 DUP3 ADD SWAP1 POP DUP2 DUP2 SUB PUSH1 0x0 DUP4 ADD MSTORE PUSH2 0xA3C DUP2 PUSH2 0xA00 JUMP JUMPDEST SWAP1 POP SWAP2 SWAP1 POP JUMP JUMPDEST PUSH1 0x0 PUSH2 0xA4E DUP3 PUSH2 0x5EC JUMP JUMPDEST SWAP2 POP PUSH2 0xA59 DUP4 PUSH2 0x5EC JUMP JUMPDEST SWAP3 POP DUP3 DUP3 SUB SWAP1 POP DUP2 DUP2 GT ISZERO PUSH2 0xA71 JUMPI PUSH2 0xA70 PUSH2 0x8FA JUMP JUMPDEST JUMPDEST SWAP3 SWAP2 POP POP JUMP JUMPDEST PUSH32 0x4E487B7100000000000000000000000000000000000000000000000000000000 PUSH1 0x0 MSTORE PUSH1 0x12 PUSH1 0x4 MSTORE PUSH1 0x24 PUSH1 0x0 REVERT JUMPDEST PUSH1 0x0 PUSH2 0xAB1 DUP3 PUSH2 0x5EC JUMP JUMPDEST SWAP2 POP PUSH2 0xABC DUP4 PUSH2 0x5EC JUMP JUMPDEST SWAP3 POP DUP3 PUSH2 0xACC JUMPI PUSH2 0xACB PUSH2 0xA77 JUMP JUMPDEST JUMPDEST DUP3 DUP3 DIV SWAP1 POP SWAP3 SWAP2 POP POP JUMP JUMPDEST PUSH32 0x4E487B7100000000000000000000000000000000000000000000000000000000 PUSH1 0x0 MSTORE PUSH1 0x32 PUSH1 0x4 MSTORE PUSH1 0x24 PUSH1 0x0 REVERT JUMPDEST PUSH1 0x0 PUSH2 0xB11 DUP3 PUSH2 0x5EC JUMP JUMPDEST SWAP2 POP PUSH32 0xFFFFFFFFFFFFFFFFFFFFFFFFFFFFFFFFFFFFFFFFFFFFFFFFFFFFFFFFFFFFFFFF DUP3 SUB PUSH2 0xB43 JUMPI PUSH2 0xB42 PUSH2 0x8FA JUMP JUMPDEST JUMPDEST PUSH1 0x1 DUP3 ADD SWAP1 POP SWAP2 SWAP1 POP JUMP INVALID LOG2 PUSH5 0x6970667358 0x22 SLT KECCAK256 BYTE ADD 0xD9 STATICCALL CODECOPY PUSH4 0x21E2A2A0 0xB5 0xE2 0xD9 BYTE 0xB5 SWAP9 CALLCODE 0xC3 PUSH24 0xB9853B095743CA8A8EB877138964736F6C63430008130033 "},"methodIdentifiers":{"auction()":"7d9f6db5","contractOwner()":"ce606ee0","getBalance()":"12065fe0","paidMembers(address)":"92ef91f7","paidMembersList(uint256)":"ffdc62e8","sendMoneyToOperator()":"0a6e1a15","withdrawFraction(address,uint256)":"1b1f94b6"}}}}}