{
  "_format": "hh-sol-artifact-1",
  "contractName": "OperatorContract",
  "sourceName": "contracts/new_operator.sol",
  "abi": [
    {
      "inputs": [
        {
          "internalType": "uint256",
          "name": "_memberSize",
          "type": "uint256"
        },
        {
          "internalType": "uint256",
          "name": "_poolSize",
          "type": "uint256"
        }
      ],
      "stateMutability": "nonpayable",
      "type": "constructor"
    },
    {
      "inputs": [],
      "name": "contractOwner",
      "outputs": [
        {
          "internalType": "address",
          "name": "",
          "type": "address"
        }
      ],
      "stateMutability": "view",
      "type": "function"
    },
    {
      "inputs": [],
      "name": "getBalance",
      "outputs": [
        {
          "internalType": "uint256",
          "name": "",
          "type": "uint256"
        }
      ],
      "stateMutability": "view",
      "type": "function"
    },
    {
      "inputs": [
        {
          "internalType": "address",
          "name": "",
          "type": "address"
        }
      ],
      "name": "paidMembers",
      "outputs": [
        {
          "internalType": "bool",
          "name": "",
          "type": "bool"
        }
      ],
      "stateMutability": "view",
      "type": "function"
    },
    {
      "inputs": [
        {
          "internalType": "uint256",
          "name": "",
          "type": "uint256"
        }
      ],
      "name": "paidMembersList",
      "outputs": [
        {
          "internalType": "address payable",
          "name": "",
          "type": "address"
        }
      ],
      "stateMutability": "view",
      "type": "function"
    },
    {
      "inputs": [],
      "name": "sendMoneyToOperator",
      "outputs": [],
      "stateMutability": "payable",
      "type": "function"
    },
    {
      "inputs": [
        {
          "internalType": "address payable",
          "name": "member",
          "type": "address"
        }
      ],
      "name": "withdraw",
      "outputs": [],
      "stateMutability": "nonpayable",
      "type": "function"
    }
  ],
  "bytecode": "0x608060405234801561001057600080fd5b506040516108c23803806108c2833981810160405281019061003291906100c2565b336000806101000a81548173ffffffffffffffffffffffffffffffffffffffff021916908373ffffffffffffffffffffffffffffffffffffffff16021790555081600181905550806002819055505050610102565b600080fd5b6000819050919050565b61009f8161008c565b81146100aa57600080fd5b50565b6000815190506100bc81610096565b92915050565b600080604083850312156100d9576100d8610087565b5b60006100e7858286016100ad565b92505060206100f8858286016100ad565b9150509250929050565b6107b1806101116000396000f3fe6080604052600436106100555760003560e01c80630a6e1a151461005a57806312065fe01461006457806351cff8d91461008f57806392ef91f7146100b8578063ce606ee0146100f5578063ffdc62e814610120575b600080fd5b61006261015d565b005b34801561007057600080fd5b506100796102a6565b604051610086919061042d565b60405180910390f35b34801561009b57600080fd5b506100b660048036038101906100b191906104ab565b6102ae565b005b3480156100c457600080fd5b506100df60048036038101906100da9190610516565b610391565b6040516100ec919061055e565b60405180910390f35b34801561010157600080fd5b5061010a6103b1565b6040516101179190610588565b60405180910390f35b34801561012c57600080fd5b50610147600480360381019061014291906105cf565b6103d5565b604051610154919061060b565b60405180910390f35b600154600380549050106101a6576040517f08c379a000000000000000000000000000000000000000000000000000000000815260040161019d90610683565b60405180910390fd5b600034116101e9576040517f08c379a00000000000000000000000000000000000000000000000000000000081526004016101e0906106ef565b60405180910390fd5b6001600460003373ffffffffffffffffffffffffffffffffffffffff1673ffffffffffffffffffffffffffffffffffffffff16815260200190815260200160002060006101000a81548160ff0219169083151502179055506003339080600181540180825580915050600190039060005260206000200160009091909190916101000a81548173ffffffffffffffffffffffffffffffffffffffff021916908373ffffffffffffffffffffffffffffffffffffffff160217905550565b600047905090565b60011515600460008373ffffffffffffffffffffffffffffffffffffffff1673ffffffffffffffffffffffffffffffffffffffff16815260200190815260200160002060009054906101000a900460ff16151514610341576040517f08c379a00000000000000000000000000000000000000000000000000000000081526004016103389061075b565b60405180910390fd5b60004790508173ffffffffffffffffffffffffffffffffffffffff166108fc829081150290604051600060405180830381858888f1935050505015801561038c573d6000803e3d6000fd5b505050565b60046020528060005260406000206000915054906101000a900460ff1681565b60008054906101000a900473ffffffffffffffffffffffffffffffffffffffff1681565b600381815481106103e557600080fd5b906000526020600020016000915054906101000a900473ffffffffffffffffffffffffffffffffffffffff1681565b6000819050919050565b61042781610414565b82525050565b6000602082019050610442600083018461041e565b92915050565b600080fd5b600073ffffffffffffffffffffffffffffffffffffffff82169050919050565b60006104788261044d565b9050919050565b6104888161046d565b811461049357600080fd5b50565b6000813590506104a58161047f565b92915050565b6000602082840312156104c1576104c0610448565b5b60006104cf84828501610496565b91505092915050565b60006104e38261044d565b9050919050565b6104f3816104d8565b81146104fe57600080fd5b50565b600081359050610510816104ea565b92915050565b60006020828403121561052c5761052b610448565b5b600061053a84828501610501565b91505092915050565b60008115159050919050565b61055881610543565b82525050565b6000602082019050610573600083018461054f565b92915050565b610582816104d8565b82525050565b600060208201905061059d6000830184610579565b92915050565b6105ac81610414565b81146105b757600080fd5b50565b6000813590506105c9816105a3565b92915050565b6000602082840312156105e5576105e4610448565b5b60006105f3848285016105ba565b91505092915050565b6106058161046d565b82525050565b600060208201905061062060008301846105fc565b92915050565b600082825260208201905092915050565b7f4d41585f4d454d424552535f5245414348454400000000000000000000000000600082015250565b600061066d601383610626565b915061067882610637565b602082019050919050565b6000602082019050818103600083015261069c81610660565b9050919050565b7f5a45524f5f4445504f5349540000000000000000000000000000000000000000600082015250565b60006106d9600c83610626565b91506106e4826106a3565b602082019050919050565b60006020820190508181036000830152610708816106cc565b9050919050565b7f4e4f4e5f4d454d4245525f574954484452415700000000000000000000000000600082015250565b6000610745601383610626565b91506107508261070f565b602082019050919050565b6000602082019050818103600083015261077481610738565b905091905056fea2646970667358221220967fe70336fba392bed5fa15b9bd6631f857233ee3ef7b30c91cb706847eb80b64736f6c63430008130033",
  "linkReferences": {},
  "deployedLinkReferences": {}
}