{
  "_format": "hh-sol-artifact-1",
  "contractName": "OperatorContract",
  "sourceName": "contracts/new_operator.sol",
  "abi": [
    {
      "inputs": [
        {
          "internalType": "uint256",
          "name": "_memberSize",
          "type": "uint256"
        },
        {
          "internalType": "uint256",
          "name": "_chitAmount",
          "type": "uint256"
        }
      ],
      "stateMutability": "nonpayable",
      "type": "constructor"
    },
    {
      "inputs": [],
      "name": "beneficiary",
      "outputs": [
        {
          "internalType": "address payable",
          "name": "",
          "type": "address"
        }
      ],
      "stateMutability": "view",
      "type": "function"
    },
    {
      "inputs": [],
      "name": "contractOwner",
      "outputs": [
        {
          "internalType": "address",
          "name": "",
          "type": "address"
        }
      ],
      "stateMutability": "view",
      "type": "function"
    },
    {
      "inputs": [],
      "name": "getBalance",
      "outputs": [
        {
          "internalType": "uint256",
          "name": "",
          "type": "uint256"
        }
      ],
      "stateMutability": "view",
      "type": "function"
    },
    {
      "inputs": [
        {
          "internalType": "address",
          "name": "",
          "type": "address"
        }
      ],
      "name": "paidMembers",
      "outputs": [
        {
          "internalType": "bool",
          "name": "",
          "type": "bool"
        }
      ],
      "stateMutability": "view",
      "type": "function"
    },
    {
      "inputs": [
        {
          "internalType": "uint256",
          "name": "",
          "type": "uint256"
        }
      ],
      "name": "paidMembersList",
      "outputs": [
        {
          "internalType": "address payable",
          "name": "",
          "type": "address"
        }
      ],
      "stateMutability": "view",
      "type": "function"
    },
    {
      "inputs": [],
      "name": "sendMoneyToOperator",
      "outputs": [],
      "stateMutability": "payable",
      "type": "function"
    },
    {
      "inputs": [
        {
          "internalType": "address payable",
          "name": "_beneficiary",
          "type": "address"
        }
      ],
      "name": "setBeneficiary",
      "outputs": [],
      "stateMutability": "nonpayable",
      "type": "function"
    },
    {
      "inputs": [],
      "name": "withdraw",
      "outputs": [],
      "stateMutability": "nonpayable",
      "type": "function"
    }
  ],
  "bytecode": "0x608060405234801561001057600080fd5b506040516109ea3803806109ea833981810160405281019061003291906100d4565b336000806101000a81548173ffffffffffffffffffffffffffffffffffffffff021916908373ffffffffffffffffffffffffffffffffffffffff1602179055508160018190555080826100859190610143565b600281905550806004819055505050610185565b600080fd5b6000819050919050565b6100b18161009e565b81146100bc57600080fd5b50565b6000815190506100ce816100a8565b92915050565b600080604083850312156100eb576100ea610099565b5b60006100f9858286016100bf565b925050602061010a858286016100bf565b9150509250929050565b7f4e487b7100000000000000000000000000000000000000000000000000000000600052601160045260246000fd5b600061014e8261009e565b91506101598361009e565b92508282026101678161009e565b9150828204841483151761017e5761017d610114565b5b5092915050565b610856806101946000396000f3fe60806040526004361061007b5760003560e01c80633ccfd60b1161004e5780633ccfd60b1461010957806392ef91f714610120578063ce606ee01461015d578063ffdc62e8146101885761007b565b80630a6e1a151461008057806312065fe01461008a5780631c31f710146100b557806338af3eed146100de575b600080fd5b6100886101c5565b005b34801561009657600080fd5b5061009f610353565b6040516100ac91906104d2565b60405180910390f35b3480156100c157600080fd5b506100dc60048036038101906100d79190610550565b61035b565b005b3480156100ea57600080fd5b506100f361039f565b604051610100919061058c565b60405180910390f35b34801561011557600080fd5b5061011e6103c5565b005b34801561012c57600080fd5b50610147600480360381019061014291906105e5565b610436565b604051610154919061062d565b60405180910390f35b34801561016957600080fd5b50610172610456565b60405161017f9190610657565b60405180910390f35b34801561019457600080fd5b506101af60048036038101906101aa919061069e565b61047a565b6040516101bc919061058c565b60405180910390f35b6001546005805490501061020e576040517f08c379a000000000000000000000000000000000000000000000000000000000815260040161020590610728565b60405180910390fd5b60003411610251576040517f08c379a000000000000000000000000000000000000000000000000000000000815260040161024890610794565b60405180910390fd5b600454341115610296576040517f08c379a000000000000000000000000000000000000000000000000000000000815260040161028d90610800565b60405180910390fd5b6001600660003373ffffffffffffffffffffffffffffffffffffffff1673ffffffffffffffffffffffffffffffffffffffff16815260200190815260200160002060006101000a81548160ff0219169083151502179055506005339080600181540180825580915050600190039060005260206000200160009091909190916101000a81548173ffffffffffffffffffffffffffffffffffffffff021916908373ffffffffffffffffffffffffffffffffffffffff160217905550565b600047905090565b80600360006101000a81548173ffffffffffffffffffffffffffffffffffffffff021916908373ffffffffffffffffffffffffffffffffffffffff16021790555050565b600360009054906101000a900473ffffffffffffffffffffffffffffffffffffffff1681565b6000479050600360009054906101000a900473ffffffffffffffffffffffffffffffffffffffff1673ffffffffffffffffffffffffffffffffffffffff166108fc829081150290604051600060405180830381858888f19350505050158015610432573d6000803e3d6000fd5b5050565b60066020528060005260406000206000915054906101000a900460ff1681565b60008054906101000a900473ffffffffffffffffffffffffffffffffffffffff1681565b6005818154811061048a57600080fd5b906000526020600020016000915054906101000a900473ffffffffffffffffffffffffffffffffffffffff1681565b6000819050919050565b6104cc816104b9565b82525050565b60006020820190506104e760008301846104c3565b92915050565b600080fd5b600073ffffffffffffffffffffffffffffffffffffffff82169050919050565b600061051d826104f2565b9050919050565b61052d81610512565b811461053857600080fd5b50565b60008135905061054a81610524565b92915050565b600060208284031215610566576105656104ed565b5b60006105748482850161053b565b91505092915050565b61058681610512565b82525050565b60006020820190506105a1600083018461057d565b92915050565b60006105b2826104f2565b9050919050565b6105c2816105a7565b81146105cd57600080fd5b50565b6000813590506105df816105b9565b92915050565b6000602082840312156105fb576105fa6104ed565b5b6000610609848285016105d0565b91505092915050565b60008115159050919050565b61062781610612565b82525050565b6000602082019050610642600083018461061e565b92915050565b610651816105a7565b82525050565b600060208201905061066c6000830184610648565b92915050565b61067b816104b9565b811461068657600080fd5b50565b60008135905061069881610672565b92915050565b6000602082840312156106b4576106b36104ed565b5b60006106c284828501610689565b91505092915050565b600082825260208201905092915050565b7f4d41585f4d454d424552535f5245414348454400000000000000000000000000600082015250565b60006107126013836106cb565b915061071d826106dc565b602082019050919050565b6000602082019050818103600083015261074181610705565b9050919050565b7f5a45524f5f4445504f5349540000000000000000000000000000000000000000600082015250565b600061077e600c836106cb565b915061078982610748565b602082019050919050565b600060208201905081810360008301526107ad81610771565b9050919050565b7f45584345454445445f434849545f56414c554500000000000000000000000000600082015250565b60006107ea6013836106cb565b91506107f5826107b4565b602082019050919050565b60006020820190508181036000830152610819816107dd565b905091905056fea26469706673582212203096d9f3250eb21b4fb8c59042bc28ab30ebc72112081ee9c7f52865fbd5136164736f6c63430008130033",
  "linkReferences": {},
  "deployedLinkReferences": {}
}