{
  "_format": "hh-sol-artifact-1",
  "contractName": "OperatorContract",
  "sourceName": "contracts/new_operator.sol",
  "abi": [
    {
      "inputs": [
        {
          "internalType": "uint256",
          "name": "_memberSize",
          "type": "uint256"
        },
        {
          "internalType": "uint256",
          "name": "_poolSize",
          "type": "uint256"
        },
        {
          "internalType": "address payable",
          "name": "_beneficiary",
          "type": "address"
        }
      ],
      "stateMutability": "nonpayable",
      "type": "constructor"
    },
    {
      "inputs": [],
      "name": "beneficiary",
      "outputs": [
        {
          "internalType": "address payable",
          "name": "",
          "type": "address"
        }
      ],
      "stateMutability": "view",
      "type": "function"
    },
    {
      "inputs": [],
      "name": "contractOwner",
      "outputs": [
        {
          "internalType": "address",
          "name": "",
          "type": "address"
        }
      ],
      "stateMutability": "view",
      "type": "function"
    },
    {
      "inputs": [],
      "name": "getBalance",
      "outputs": [
        {
          "internalType": "uint256",
          "name": "",
          "type": "uint256"
        }
      ],
      "stateMutability": "view",
      "type": "function"
    },
    {
      "inputs": [
        {
          "internalType": "address",
          "name": "",
          "type": "address"
        }
      ],
      "name": "paidMembers",
      "outputs": [
        {
          "internalType": "bool",
          "name": "",
          "type": "bool"
        }
      ],
      "stateMutability": "view",
      "type": "function"
    },
    {
      "inputs": [
        {
          "internalType": "uint256",
          "name": "",
          "type": "uint256"
        }
      ],
      "name": "paidMembersList",
      "outputs": [
        {
          "internalType": "address payable",
          "name": "",
          "type": "address"
        }
      ],
      "stateMutability": "view",
      "type": "function"
    },
    {
      "inputs": [],
      "name": "sendMoneyToOperator",
      "outputs": [],
      "stateMutability": "payable",
      "type": "function"
    },
    {
      "inputs": [],
      "name": "withdraw",
      "outputs": [],
      "stateMutability": "nonpayable",
      "type": "function"
    }
  ],
  "bytecode": "0x608060405234801561001057600080fd5b5060405161089838038061089883398181016040528101906100329190610162565b336000806101000a81548173ffffffffffffffffffffffffffffffffffffffff021916908373ffffffffffffffffffffffffffffffffffffffff160217905550826001819055508160028190555080600360006101000a81548173ffffffffffffffffffffffffffffffffffffffff021916908373ffffffffffffffffffffffffffffffffffffffff1602179055505050506101b5565b600080fd5b6000819050919050565b6100e1816100ce565b81146100ec57600080fd5b50565b6000815190506100fe816100d8565b92915050565b600073ffffffffffffffffffffffffffffffffffffffff82169050919050565b600061012f82610104565b9050919050565b61013f81610124565b811461014a57600080fd5b50565b60008151905061015c81610136565b92915050565b60008060006060848603121561017b5761017a6100c9565b5b6000610189868287016100ef565b935050602061019a868287016100ef565b92505060406101ab8682870161014d565b9150509250925092565b6106d4806101c46000396000f3fe6080604052600436106100705760003560e01c80633ccfd60b1161004e5780633ccfd60b146100d557806392ef91f7146100ec578063ce606ee014610129578063ffdc62e81461015457610070565b80630a6e1a151461007557806312065fe01461007f57806338af3eed146100aa575b600080fd5b61007d610191565b005b34801561008b57600080fd5b506100946102da565b6040516100a19190610415565b60405180910390f35b3480156100b657600080fd5b506100bf6102e2565b6040516100cc9190610471565b60405180910390f35b3480156100e157600080fd5b506100ea610308565b005b3480156100f857600080fd5b50610113600480360381019061010e91906104cf565b610379565b6040516101209190610517565b60405180910390f35b34801561013557600080fd5b5061013e610399565b60405161014b9190610541565b60405180910390f35b34801561016057600080fd5b5061017b60048036038101906101769190610588565b6103bd565b6040516101889190610471565b60405180910390f35b600154600480549050106101da576040517f08c379a00000000000000000000000000000000000000000000000000000000081526004016101d190610612565b60405180910390fd5b6000341161021d576040517f08c379a00000000000000000000000000000000000000000000000000000000081526004016102149061067e565b60405180910390fd5b6001600560003373ffffffffffffffffffffffffffffffffffffffff1673ffffffffffffffffffffffffffffffffffffffff16815260200190815260200160002060006101000a81548160ff0219169083151502179055506004339080600181540180825580915050600190039060005260206000200160009091909190916101000a81548173ffffffffffffffffffffffffffffffffffffffff021916908373ffffffffffffffffffffffffffffffffffffffff160217905550565b600047905090565b600360009054906101000a900473ffffffffffffffffffffffffffffffffffffffff1681565b6000479050600360009054906101000a900473ffffffffffffffffffffffffffffffffffffffff1673ffffffffffffffffffffffffffffffffffffffff166108fc829081150290604051600060405180830381858888f19350505050158015610375573d6000803e3d6000fd5b5050565b60056020528060005260406000206000915054906101000a900460ff1681565b60008054906101000a900473ffffffffffffffffffffffffffffffffffffffff1681565b600481815481106103cd57600080fd5b906000526020600020016000915054906101000a900473ffffffffffffffffffffffffffffffffffffffff1681565b6000819050919050565b61040f816103fc565b82525050565b600060208201905061042a6000830184610406565b92915050565b600073ffffffffffffffffffffffffffffffffffffffff82169050919050565b600061045b82610430565b9050919050565b61046b81610450565b82525050565b60006020820190506104866000830184610462565b92915050565b600080fd5b600061049c82610430565b9050919050565b6104ac81610491565b81146104b757600080fd5b50565b6000813590506104c9816104a3565b92915050565b6000602082840312156104e5576104e461048c565b5b60006104f3848285016104ba565b91505092915050565b60008115159050919050565b610511816104fc565b82525050565b600060208201905061052c6000830184610508565b92915050565b61053b81610491565b82525050565b60006020820190506105566000830184610532565b92915050565b610565816103fc565b811461057057600080fd5b50565b6000813590506105828161055c565b92915050565b60006020828403121561059e5761059d61048c565b5b60006105ac84828501610573565b91505092915050565b600082825260208201905092915050565b7f4d41585f4d454d424552535f5245414348454400000000000000000000000000600082015250565b60006105fc6013836105b5565b9150610607826105c6565b602082019050919050565b6000602082019050818103600083015261062b816105ef565b9050919050565b7f5a45524f5f4445504f5349540000000000000000000000000000000000000000600082015250565b6000610668600c836105b5565b915061067382610632565b602082019050919050565b600060208201905081810360008301526106978161065b565b905091905056fea26469706673582212204d120d2eecb245b07af3250c2ffac408a491481f149a3aa61f287258a3296aaa64736f6c63430008130033",
  "linkReferences": {},
  "deployedLinkReferences": {}
}