{
  "_format": "hh-sol-artifact-1",
  "contractName": "OperatorContractOld",
  "sourceName": "contracts/old_operator.sol",
  "abi": [
    {
      "inputs": [
        {
          "internalType": "uint256",
          "name": "_memberSize",
          "type": "uint256"
        }
      ],
      "stateMutability": "payable",
      "type": "constructor"
    },
    {
      "inputs": [],
      "name": "auction",
      "outputs": [],
      "stateMutability": "nonpayable",
      "type": "function"
    },
    {
      "inputs": [],
      "name": "contractOwner",
      "outputs": [
        {
          "internalType": "address",
          "name": "",
          "type": "address"
        }
      ],
      "stateMutability": "view",
      "type": "function"
    },
    {
      "inputs": [],
      "name": "getBalance",
      "outputs": [
        {
          "internalType": "uint256",
          "name": "",
          "type": "uint256"
        }
      ],
      "stateMutability": "view",
      "type": "function"
    },
    {
      "inputs": [
        {
          "internalType": "address",
          "name": "",
          "type": "address"
        }
      ],
      "name": "paidMembers",
      "outputs": [
        {
          "internalType": "bool",
          "name": "",
          "type": "bool"
        }
      ],
      "stateMutability": "view",
      "type": "function"
    },
    {
      "inputs": [
        {
          "internalType": "uint256",
          "name": "",
          "type": "uint256"
        }
      ],
      "name": "paidMembersList",
      "outputs": [
        {
          "internalType": "address payable",
          "name": "",
          "type": "address"
        }
      ],
      "stateMutability": "view",
      "type": "function"
    },
    {
      "inputs": [],
      "name": "sendMoneyToOperator",
      "outputs": [],
      "stateMutability": "payable",
      "type": "function"
    },
    {
      "inputs": [
        {
          "internalType": "address payable",
          "name": "member",
          "type": "address"
        },
        {
          "internalType": "uint256",
          "name": "amount",
          "type": "uint256"
        }
      ],
      "name": "withdrawFraction",
      "outputs": [],
      "stateMutability": "nonpayable",
      "type": "function"
    }
  ],
  "bytecode": "0x6080604052604051610c7b380380610c7b833981810160405281019061002591906100bb565b336000806101000a81548173ffffffffffffffffffffffffffffffffffffffff021916908373ffffffffffffffffffffffffffffffffffffffff160217905550806001819055508060028190555034600381905550506100e8565b600080fd5b6000819050919050565b61009881610085565b81146100a357600080fd5b50565b6000815190506100b58161008f565b92915050565b6000602082840312156100d1576100d0610080565b5b60006100df848285016100a6565b91505092915050565b610b84806100f76000396000f3fe6080604052600436106100705760003560e01c80637d9f6db51161004e5780637d9f6db5146100d357806392ef91f7146100ea578063ce606ee014610127578063ffdc62e81461015257610070565b80630a6e1a151461007557806312065fe01461007f5780631b1f94b6146100aa575b600080fd5b61007d61018f565b005b34801561008b57600080fd5b506100946102d8565b6040516100a19190610605565b60405180910390f35b3480156100b657600080fd5b506100d160048036038101906100cc91906106af565b6102e0565b005b3480156100df57600080fd5b506100e861043e565b005b3480156100f657600080fd5b50610111600480360381019061010c919061072d565b610440565b60405161011e9190610775565b60405180910390f35b34801561013357600080fd5b5061013c610460565b604051610149919061079f565b60405180910390f35b34801561015e57600080fd5b50610179600480360381019061017491906107ba565b610484565b60405161018691906107f6565b60405180910390f35b600154600480549050106101d8576040517f08c379a00000000000000000000000000000000000000000000000000000000081526004016101cf9061086e565b60405180910390fd5b6000341161021b576040517f08c379a0000000000000000000000000000000000000000000000000000000008152600401610212906108da565b60405180910390fd5b6001600560003373ffffffffffffffffffffffffffffffffffffffff1673ffffffffffffffffffffffffffffffffffffffff16815260200190815260200160002060006101000a81548160ff0219169083151502179055506004339080600181540180825580915050600190039060005260206000200160009091909190916101000a81548173ffffffffffffffffffffffffffffffffffffffff021916908373ffffffffffffffffffffffffffffffffffffffff160217905550565b600047905090565b600081670de0b6b3a76400006102f69190610929565b905060011515600560008573ffffffffffffffffffffffffffffffffffffffff1673ffffffffffffffffffffffffffffffffffffffff16815260200190815260200160002060009054906101000a900460ff1615151461038b576040517f08c379a0000000000000000000000000000000000000000000000000000000008152600401610382906109b7565b60405180910390fd5b478111156103ce576040517f08c379a00000000000000000000000000000000000000000000000000000000081526004016103c590610a23565b60405180910390fd5b8273ffffffffffffffffffffffffffffffffffffffff166108fc829081150290604051600060405180830381858888f19350505050158015610414573d6000803e3d6000fd5b506000820361042d576104288360006104c3565b610439565b6104388360016104c3565b5b505050565b565b60056020528060005260406000206000915054906101000a900460ff1681565b60008054906101000a900473ffffffffffffffffffffffffffffffffffffffff1681565b6004818154811061049457600080fd5b906000526020600020016000915054906101000a900473ffffffffffffffffffffffffffffffffffffffff1681565b600081156104d057600190505b60008160ff166004805490506104e69190610a43565b476104f19190610aa6565b905060005b6004805490508110156105e55760006004828154811061051957610518610ad7565b5b9060005260206000200160009054906101000a900473ffffffffffffffffffffffffffffffffffffffff1690508573ffffffffffffffffffffffffffffffffffffffff168173ffffffffffffffffffffffffffffffffffffffff1614801561057e5750845b1561058957506105d2565b8073ffffffffffffffffffffffffffffffffffffffff166108fc849081150290604051600060405180830381858888f193505050501580156105cf573d6000803e3d6000fd5b50505b80806105dd90610b06565b9150506104f6565b5050505050565b6000819050919050565b6105ff816105ec565b82525050565b600060208201905061061a60008301846105f6565b92915050565b600080fd5b600073ffffffffffffffffffffffffffffffffffffffff82169050919050565b600061065082610625565b9050919050565b61066081610645565b811461066b57600080fd5b50565b60008135905061067d81610657565b92915050565b61068c816105ec565b811461069757600080fd5b50565b6000813590506106a981610683565b92915050565b600080604083850312156106c6576106c5610620565b5b60006106d48582860161066e565b92505060206106e58582860161069a565b9150509250929050565b60006106fa82610625565b9050919050565b61070a816106ef565b811461071557600080fd5b50565b60008135905061072781610701565b92915050565b60006020828403121561074357610742610620565b5b600061075184828501610718565b91505092915050565b60008115159050919050565b61076f8161075a565b82525050565b600060208201905061078a6000830184610766565b92915050565b610799816106ef565b82525050565b60006020820190506107b46000830184610790565b92915050565b6000602082840312156107d0576107cf610620565b5b60006107de8482850161069a565b91505092915050565b6107f081610645565b82525050565b600060208201905061080b60008301846107e7565b92915050565b600082825260208201905092915050565b7f4d41585f4d454d424552535f5245414348454400000000000000000000000000600082015250565b6000610858601383610811565b915061086382610822565b602082019050919050565b600060208201905081810360008301526108878161084b565b9050919050565b7f5a45524f5f4445504f5349540000000000000000000000000000000000000000600082015250565b60006108c4600c83610811565b91506108cf8261088e565b602082019050919050565b600060208201905081810360008301526108f3816108b7565b9050919050565b7f4e487b7100000000000000000000000000000000000000000000000000000000600052601160045260246000fd5b6000610934826105ec565b915061093f836105ec565b925082820261094d816105ec565b91508282048414831517610964576109636108fa565b5b5092915050565b7f4e4f4e5f4d454d4245525f574954484452415700000000000000000000000000600082015250565b60006109a1601383610811565b91506109ac8261096b565b602082019050919050565b600060208201905081810360008301526109d081610994565b9050919050565b7f4d41585f414d545f524541434845440000000000000000000000000000000000600082015250565b6000610a0d600f83610811565b9150610a18826109d7565b602082019050919050565b60006020820190508181036000830152610a3c81610a00565b9050919050565b6000610a4e826105ec565b9150610a59836105ec565b9250828203905081811115610a7157610a706108fa565b5b92915050565b7f4e487b7100000000000000000000000000000000000000000000000000000000600052601260045260246000fd5b6000610ab1826105ec565b9150610abc836105ec565b925082610acc57610acb610a77565b5b828204905092915050565b7f4e487b7100000000000000000000000000000000000000000000000000000000600052603260045260246000fd5b6000610b11826105ec565b91507fffffffffffffffffffffffffffffffffffffffffffffffffffffffffffffffff8203610b4357610b426108fa565b5b60018201905091905056fea26469706673582212201a01d9fa396321e2a2a0b5e2d91ab598f2c377b9853b095743ca8a8eb877138964736f6c63430008130033",
  "linkReferences": {},
  "deployedLinkReferences": {}
}